:0400000013C0FECF5C
:10000400FDCFFCCFFBCFFACFF9CFF8CFF7CFF6CFA8
:1000140001002D4E414E00494E460000010078007B
:1000240014000000F894EE27ECBBE5BFF8E1A4B798
:10003400A77FA4BFF1BDE1BD8DE0A2E0ED938A9559
:10004400E9F780E4A0E6ED938A95E9F7E0E2F0E0D1
:10005400C8953196802DC8953196902D0097B9F0AA
:10006400C8953196A02DC8953196B02DC895319676
:10007400102CC89531966E2F7F2FF02DE12DC89549
:1000840031960D920197D9F7E62FF72FE1CFEFE9DB
:10009400EDBFC0E77BC0E7E0E8BBE1E003C0E6E01A
:1000A400E8BBE0E0E8BB08954AD100E0093050F431
:1000B400A0E7A00FAC91A13011F4EDDF01C0EFDF98
:1000C4000F5FF4CF21C03BD10830F0F43BD13FD1D6
:1000D400A4E0B0E03FD142D19CF4A881A13040F02B
:1000E40042D13197E05942D13ED143D1EF583ED16C
:1000F4003AD13FD141D1E8813FD142D147D1E7CF75
:1001040049D121960F5FE0CF099108950A930A819E
:100114000830B0F4013050F042D119F418D13197BD
:1001240003C015D1319725D1E05920D138D111F42C
:1001340039D103C00CD11DD11FD122D10F5FE8CF1B
:1001440007E0EA81F0E03196A02FB0E0AE17BF07D8
:10015400E4F0073058F423D119F4E02FEF5804C029
:10016400F6D0319606D1E059A0E0A08318D111F45D
:1001740019D103C0ECD0FDD0FFD096DFE0E9F1E067
:10018400FA93EA931AD10150DCCFD6C000E0E0E83C
:10019400E6BDE0E0E6BDE0E3E8BBE7E0E7BBE0E0C6
:1001A400EFBDE3BFE2BFE6BFE9BDEBBFE5BFE9BF1B
:1001B400E0E8E8B9E0E0E3B9E4BBE6B9B49943C0E8
:1001C4000F5F013019F4F3D056D03AC0023021F455
:1001D400F1D0F0D07CD034C0043021F4E8D0EAD09F
:1001E40076D02EC0063021F4E5D0E1D070D028C0FE
:1001F4000B3021F4DCD0DBD06AD022C00A3019F4F1
:10020400D9D039D01DC0053019F4D1D034D018C09C
:10021400073011F458DF14C0093019F4C8D015D0D0
:100224000FC0033021F4E2E0EA930FD009C0083094
:1002340021F4E3E0EA9309D003C00C3009F400E0B0
:10024400E3E0EA9302D0BACFFFCF79D0093090F43B
:10025400A6D019F420DF9ED005C0A981A23011F4E4
:100264001ADF01C01CDFEAEFF0E0FA93EA93A5D0AD
:100274000F5FECCF29C063D0083030F563D067D06E
:10028400A8E0B0E067D06AD0DCF4A881A13058F0CF
:10029400AA81A13019F467D0319703C064D0319793
:1002A40068D0E05963D0AA81A13011F4E88102C07A
:1002B4005AD05FD0E059A1E0A08362D067D0DFCFED
:1002C40069D021960F5FD8CF0881229608950A93AA
:1002D40007E0013088F136D03AD0AAE0B0E03AD055
:1002E4003DD0DCF4A881A13058F0AB81A13019F4E1
:1002F4003AD0319703C037D031973BD0E05936D04C
:10030400AB81A13011F4E88102C02DD032D0E05984
:10031400A1E0A08335D03AD0DFCFAA81A13049F43F
:1003240016D0A7E0B0E0AE1BBF0BAA93EC81EA9312
:10033400EDDE21960150CDCF0881239608950A93CE
:1003440000E008952197E0E0E883E8830895E02F32
:10035400F0E008953ED0EA1BFB0B0895A881B0E0BD
:10036400AE17BF070895E881F0E00895A0E0A083E8
:100374000895A7E0B0E0EECFE059A1E0A08308958E
:1003840093DEEAEFF0E0FA93EA9317C0E881EF5FB7
:10039400E8830895EAEFF0E0FA93EA930EC0A981A6
:1003A400A1300895A0E7A00FE1E0EC930895E1E007
:1003B400EA930895EFEFEA930895E991F99130965D
:1003C40039F080E699E00197F1F7A8953197C9F7DC
:1003D40008951B2EBF2FF12D1A2EAE2FE12D089557
:00000001FF
